:0400000080313828EB
:100008007E14803120007F08F600911D332891115D
:100018002400141814193328941E29281108F500EF
:1000280020002008703E8600870175088100013095
:10003800A0070030A13D033020062104031D31280C
:10004800A001A101A301A30A312824001108F50089
:1000580075082000A200A001A10124001516760849
:100068002000FF007E10090080313A28F001F101DC
:10007800F201F301F4012000A001A101A201A301F2
:10008800A4017E1020008031492872302100990097
:1000980023008C018D0121008C018D0120008C0131
:1000A8008D010830F7000030F8008031952080314C
:1000B80025009E010C30260093000C309A00FF307A
:1000C80020009B009A011C1520008C017208031D5A
:1000D8006F28023074287203031D7928023020002B
:1000E8008C007108260091008B28023072060319D3
:1000F800812803307206031D8928013020008C00F6
:1001080026009101710898008C2826009101980119
:100118006830F900E430890B8F28F90B8F280032FA
:100128006828773524009200363095000130960013
:1001380097019401083021009100C0308B0008001D
:020000040001F9
:04000E00C4CFFFDA82
:00000001FF
