:08000000803102288731FD2F39
:100F1800F301F40171087402031D942F7008730221
:100F2800031808001A30F200F830890B992FF20BD9
:100F3800992F00320130F3070030F43D8E2F7230C4
:100F48002100990023008C018D0121008C018D0165
:100F580020008C018D0120000D168D126430F000E8
:100F68000030F10087318C27873120000D128D1653
:100F78006430F0000030F10087318C278731200081
:100F88008D120D176430F0000030F10087318C2786
:100F9800873120000D130A30F0000030F10087314E
:100FA8008C27873120000D160530F0000030F10045
:100FB80087318C27873120000D128D160530F000FF
:100FC8000030F10087318C27873120008D120D17F2
:100FD8000530F0000030F10087318C278731200080
:100FE8000D136430F0000030F10087318C27873111
:080FF800AF2F20008731A32F69
:020000040001F9
:04000E0084CFFFDAC2
:00000001FF
