:0400000080316228C1
:100008007E14803120007F08F100911D5B282400B8
:1000180014192E28941A1C285330F0007008F9007F
:100028001108F0007008F2002000C901CA01552823
:1000380024001108F0007908860087017008810003
:100048000130F0007008F90701302000C9070030BE
:10005800CA3D5528141C41284B30F0007008FA009E
:100068001108F0007008F20014080139F000150EAC
:1000780001397004031D38284B28161B5928140809
:100088000139F000150E01397004031D43287A0860
:1000980086008701010891000130F0007008FA0716
:1000A80020009111240015165B28200091112000D2
:1000B800921992117108FF007E100900803164289E
:1000C800F901FA014930840000308500123083318B
:1000D80040237E1020008031712872302100990061
:1000E800083023008C0060308D00083021008C001F
:1000F80012308D0020008C018D01013021009D00FF
:1001080090309E000730F3000030F40083311A234A
:10011800803115302000BE004B30BD00BE30890B49
:100128009328BD0B9328BE0B932800002000C5011F
:10013800C601C701C8018231EE228031740820004F
:10014800C4007308C3004308440403191629530361
:10015800031DB6285408BD00BE013D08C5003E0871
:10016800C600162902305306031DC7285408BD00CF
:10017800BE010530BD35BE0D890BBE283D08C70040
:100188003E08C800162903305306031DFF28003017
:10019800A9008030AA004030AB000330F3000030E3
:1001A800F4008231BB22803174082000A700730854
:1001B800A60083310523803120002608AC002708DB
:1001C800AD002808AE0081312421803120002908A3
:1001D800C0002A08C1002B08C2004008F3004108EB
:1001E800F4004208F5008131CD21803173082000E8
:1001F800BD003D08152904305306031D16290A3091
:10020800BD003D08F30000308D19013083312F23E4
:1002180080312000BE0000300D1901303E07BF00BC
:100228003F08CB0045088C0047088D0003302000AC
:10023800BD009730890B1E29BD0B1E2900329F284F
:1002480020002C08AF002D08B0002E08B1000310C4
:10025800300D310DB2003208B7003708031D3B29B5
:100268000030A9000030AA000030AB0008002908BF
:10027800AF002A08B0002B08B1000310300D310D73
:10028800B2003208B8003808031D51290030A9000F
:100298000030AA000030AB0008000030B400003085
:1002A800B5000030B60089303807AF002F08B70214
:1002B8002C08AF002D08B0002E08B1001030B13660
:1002C800B00CAF0C890B63292F08B2003208B800B4
:1002D8002908AF002A08B0002B08B1001030B13649
:1002E800B00CAF0C890B73292F08B2003208B8067E
:1002F8008030AF002F08B805AD17FF30AC05FF30D0
:10030800AD050030AE05AA17FF30A905FF30AA05D4
:100318000030AB051830AF002F08B3000130B435FA
:10032800B50DB60D890B93292B082E02031DA229A2
:100338002A082D02031DA22929082C02031CAB2917
:100348002908AC022A08AD3B2B08AE3B3414013017
:10035800AC35AD0DAE0D890BAC290130B302031DD0
:1003680092293408F3003508F4003608F5003708F8
:10037800AF002F08F6003808B0003008F7008231C7
:10038800542273082000A9007408AA007508AB005D
:10039800080073082000A0007408A1007508A200D6
:1003A8000310210D220DA3002308A9002908031D0D
:1003B800E6290030F6000030F5000030F400003087
:1003C800F30008007308A0007408A1007508A200D3
:1003D8001730A236A10CA00C890BED292008A30028
:1003E8002308A400F417FF30F305FF30F4050030AC
:1003F800F5057308A5007408A6007508A700A801EC
:100408008E30A902A91F242A2908803A8F3E031892
:10041800162A0030F6000030F5000030F4000030F5
:10042800F30008000130A836A70CA60CA50C890B10
:10043800172A0130A0002008A90703193D2A162A07
:1004480018302902031C3A2A0030F6000030F50063
:100458000030F4000030F30008000130A535A60D87
:10046800A70DA80D890B322A0130A9022908031DFE
:10047800312A240803194B2AA509A609A709A8099E
:10048800A50A0319A60A0319A70A0319A80A28081E
:10049800F6002708F5002608F4002508F3000800F0
:1004A800760803195C2A750874047304031D6E2A00
:1004B8000030F3000030F4000030F500080001308F
:1004C8002000A0002008F6070130F536F40CF30CE4
:1004D800890B692AFE3075050319882A632A0130B9
:1004E8002000A0002008F6070130F30700300318A9
:1004F8000130F407003003180130F5070130F536F4
:10050800F40CF30C890B832AFF3075050319952A1F
:10051800732A0130F6020130F335F40DF50D890B1D
:10052800902AF41B9B2A0230760203188D2A76182B
:10053800A32AFF30F3057F30F405FF30F5050310DB
:10054800F60C76082000A000A101A2011030A03509
:10055800A10DA20D890BAB2A2008F3042108F4048D
:100568002208F504770803190800F517080073082E
:100578002000A0000130A035FF3E031DBF2A203512
:10058800013E21009D000D30890BC82A0000210082
:100598009D149D18CD2A1C082000A000A101200848
:1005A800F5002108F60021001B082000A000A10189
:1005B8007508A300A20120082204A400210823042E
:1005C800A5002408F5002508F6007608F40075084B
:1005D800F3000800F501F601200049084A04031950
:1005E800002B2400941D141E002B20004A08F6003E
:1005F8004908F500C901CA017608F4007508F30036
:10060800080020002608F3002708F400F5018E30C2
:10061800F8007808F600F7018231542273082000A8
:10062800A6007408A7007508A800080080302400F8
:10063800940026309500161473359200FE3093000E
:100648002100911592150B178B172000911192110B
:10065800C901CA010800F600F501761C372B73089A
:10066800F4007408F5070310F30D0310F60C760870
:10067800031D312B75080800640080010131890BC6
:04068800412B0034CE
:020000040001F9
:04000E0084CFFFDAC2
:00000001FF
