:0400000080316228C1
:100008007E14803120007F08F100911D5B282400B8
:1000180014192E28941A1C284430F0007008F9008E
:100028001108F0007008F2002000BA01BB01552841
:1000380024001108F0007908860087017008810003
:100048000130F0007008F90701302000BA070030CD
:10005800BB3D5528141C41283C30F0007008FA00BC
:100068001108F0007008F20014080139F000150EAC
:1000780001397004031D38284B28161B5928140809
:100088000139F000150E01397004031D43287A0860
:1000980086008701010891000130F0007008FA0716
:1000A80020009111240015165B28200091112000D2
:1000B800921992117108FF007E100900803164289E
:1000C800F901FA0120308400003085002C3083319A
:1000D80078237E1020008031712872302100990029
:1000E8000F3023008C00C0308D001F3021008C00A1
:1000F800D2308D0020008C018D01013021009D003F
:1001080090309E000830F3000030F4008331522311
:10011800803120008D12EB01EC0100306C020730B9
:1001280003196B0203181A290330E9006908F30060
:100138006B08833167238031203E86008701663053
:100148002000D5009630D6004030D7006C08F40067
:100158006B08F30083310A23803174082000D30030
:100168007308D20083313D23803120005208D80023
:100178005308D9005408DA00813121218031200048
:100188005508C03F5608C13F5708C23F0330E90031
:100198006908F3006B08833167238031203E8600AD
:1001A8008701403F2000CC00413FCD00423FCE00B8
:1001B8008131CA21803120004C08EA006B08013ED9
:1001C8003C3E860087016A0881000630DA0000306C
:1001D800DB000330E9006908F3006B08833167230B
:1001E8008031203E86008701403F2000CC00413FFF
:1001F800CD00423FCE008131CA21803120004D0818
:10020800DD004C08DC008231B822803120005A0819
:10021800B8075B08B93D0130EB070030EC3D003012
:100228006C02073003196B02031C98283808E90090
:100238006908BC00B801B9018D2820005808DB0006
:100248005908DC005A08DD0003105C0D5D0DDE0066
:100258005E08E3006308031D38290030D50000302C
:10026800D6000030D70008005508DB005608DC002F
:100278005708DD0003105C0D5D0DDE005E08E4002C
:100288006408031D4E290030D5000030D600003028
:10029800D70008000030E0000030E1000030E20044
:1002A80089306407DB005B08E3025808DB00590863
:1002B800DC005A08DD001030DD36DC0CDB0C890B65
:1002C80060295B08DE005E08E4005508DB0056087C
:1002D800DC005708DD001030DD36DC0CDB0C890B48
:1002E80070295B08DE005E08E4068030DB005B08EE
:1002F800E405D917FF30D805FF30D9050030DA05F5
:10030800D617FF30D505FF30D6050030D705183091
:10031800DB005B08DF000130E035E10DE20D890B01
:10032800902957085A02031D9F2956085902031D90
:100338009F2955085802031CA8295508D8025608B1
:10034800D93B5708DA3B60140130D835D90DDA0D9E
:10035800890BA9290130DF02031D8F296008F300EA
:100368006108F4006208F5006308DB005B08F6002A
:100378006408DC005C08F700823151227308200011
:10038800D5007408D6007508D700080020004C086E
:10039800D0004D08D1004E08D2000310510D520D67
:1003A800D3005308D9005908031DE3290030CF00B2
:1003B8000030CE000030CD000030CC0008004C08E2
:1003C800D0004D08D1004E08D2001730D236D10CDB
:1003D800D00C890BEA295008D3005308D400CD1754
:1003E800FF30CC05FF30CD050030CE054C08D500D8
:1003F8004D08D6004E08D700D8018E30D902D91F33
:10040800212A5908803A8F3E0318132A0030CF005A
:100418000030CE000030CD000030CC0008000130A4
:10042800D836D70CD60CD50C890B142A0130D0003D
:100438005008D90703193A2A132A18305902031CFD
:10044800372A0030CF000030CE000030CD00003019
:10045800CC0008000130D535D60DD70DD80D890B45
:100468002F2A0130D9025908031D2E2A54080319CE
:10047800482AD509D609D709D809D50A0319D60AA9
:100488000319D70A0319D80A5808CF005708CE000D
:100498005608CD005508CC00080076080319592ADB
:1004A800750874047304031D6B2A0030F3000030D0
:1004B800F4000030F500080001302000CC004C08A2
:1004C800F6070130F536F40CF30C890B662AFE307A
:1004D80075050319852A602A01302000CC004C08D4
:1004E800F6070130F307003003180130F407003035
:1004F80003180130F5070130F536F40CF30C890BBD
:10050800802AFF3075050319922A702A0130F602F5
:100518000130F335F40DF50D890B8D2AF41B982A5B
:100528000230760203188A2A7618A02AFF30F305CB
:100538007F30F405FF30F5050310F60C760820002F
:10054800CC00CD01CE011030CC35CD0DCE0D890BB0
:10055800A82A4C08F3044D08F4044E08F50477085B
:1005680003190800F51708002000DF01DB1FC32A64
:10057800DA09DB09DA0A0319DB0ADF01DF0ADD1F02
:10058800CE2ADC09DD09DC0A0319DD0A0130F7008F
:100598007708DF06E001E1015A085B040319FD2A28
:1005A800DE01DE0ADB1BE22A0130DA35DB0D890BBE
:1005B800D92A0130F7007708DE07D62A0130E0355E
:1005C800E10D890BE32A5B085D02031DED2A5A0839
:1005D8005C02031CF42A5A08DC025B08DD3B601449
:1005E8000130DB36DA0C890BF52A0130DE02031DF7
:1005F800E22A5F080319052BE009E109E00A03195B
:10060800E10A6108DB006008DA00080073082000CE
:10061800CC000130CC35FF3E031D0E2B4C35013E7E
:1006280021009D000D30890B172B000021009D141F
:100638009D181C2B1C082000CC00CD014C08F5008F
:100648004D08F60021001B082000CC00CD017508DC
:10065800CF00CE014C084E04D0004D084F04D10005
:100668005008F5005108F6007608F4007508F30004
:10067800080020005208F3005308F400F5018E30FA
:10068800F8007808F600F70182315122730820003B
:10069800D2007408D3007508D40008008030240004
:1006A800940026309500161473359200FE3093009E
:1006B8002100911592150B178B172000911192119B
:1006C800BA01BB010800F600F501761C6F2B730810
:1006D800F4007408F5070310F30D0310F60C760800
:1006E800031D692B75080800640080010131890B1E
:0406F800792B003426
:020000040001F9
:04000E00FFFFFFFFF2
:00000001FF
