:08000000803102288731FD2F39
:100F5200F101F20172302100990023008C018D0110
:100F620021008C018D0120008C018D010C302500A7
:100F720093000C309A000C30260093000C309A003B
:100F820022001D109D1101302500960001309D00A8
:100F92009101920155309E000230280097002500F1
:100FA20098019901280095017C30960017150130AF
:100FB20072020030031971020318F22F7108250022
:100FC2009100710898007103FF3AFF3E26009100DC
:100FD2007103FF3AFF3E98000130F1070030F23D05
:100FE200F42FF101F2011A30F000F830890BF72FDB
:0E0FF200F00BF72F0032D82F20008731A92FE7
:020000040001F9
:04000E0084CFFFDAC2
:00000001FF
