:08000000803102288731FD2F39
:100F320070302100990023008C0121008C012000D7
:100F42008C0125009E010C30260093000C309A0083
:100F5200013020009C00A5309B009A011C156630D0
:100F620026009100B33098000B30F1002630F000DB
:100F72005E30890BBA2FF00BBA2FF10BBA2F193052
:100F82002600910098010B30F1002630F0005E300F
:100F9200890BC92FF00BC92FF10BC92FFE30260088
:100FA2009100663098000B30F1002630F0005E3080
:100FB200890BD92FF00BD92FF10BD92F26009101D4
:100FC20098010B30F1002630F0005E30890BE72FDC
:100FD200F00BE72FF10BE72F260091016630980006
:100FE2000B30F1002630F0005E30890BF62FF00B4B
:0E0FF200F62FF10BF62FB02F20008731992F2C
:020000040001F9
:04000E00C4CFFFDA82
:00000001FF
