:0400000080313928EA
:100008007E14803120007F08F100911D35282400DE
:10001800141E102820008C152400941D152820007B
:100028000C152400141D1B2820000C171D28200067
:100038008C172400141C232820000C1425282000C9
:100048000C102400141814192F281108F000700837
:10005800F900F801F80AFE30950020009111FA0124
:10006800FA0A7108FF007E10090080313B28F80168
:10007800F901FA017E10200080314228F030210079
:10008800990023008C018D0121008C0112308D0014
:1000980020008C018D01023024009200FE30950072
:1000A800813096009401083021009100C0308B0007
:1000B80020000C120530F7000F30F600F130890BE4
:1000C8006328F60B6328F70B6328000020000C1642
:1000D8000530F7000F30F600F130890B7128F60B68
:1000E8007128F70B712800007A080319882829302D
:1000F800F7009630F6007F30890B8028F60B8028B1
:10010800F70B80280000FA01780803195C283030C2
:100118007906031D91280130A42831307906031D82
:1001280097280230A42832307906031D9D28043010
:10013800A42833307906031DA3280830A4280F30DB
:0801480020008C00F8015C2886
:020000040001F9
:04000E00C4CFFFDA82
:00000001FF
